:1000000004308A00712C0000FF00030E8301A10060
:100010000A08A0008A010408A2007708A300780853
:10002000A4007908A5007A08A600831383128C30F7
:100030008400001C1D280C182E2822088400230888
:10004000F7002408F8002508F9002608FA0020081F
:100050008A00210E8300FF0E7F0E09008A110A120A
:1000600039280A108A100A11820728340C34013406
:1000700006342A08023C031941282A08033C031DC0
:1000800048280C108E010B308F00DC308E00A90A3E
:100090000C108A110A121D28453763346537E4377E
:1000A0002010201020100A00311DCF252010201014
:1000B00020100A00C6346C3AF2306E326F102010F5
:1000C000A53A201020050000BD1EC624CD1E3D10FF
:1000D000201020108A20CD204E244110D4224D1013
:1000E000CD20C9290001C6346C3AF2306E326F104F
:1000F000A012751020100A00311DCF252C10321DC2
:10010000CF2520102010200500014138EC34631069
:100110004136E734E334E4302010A53A20102005BE
:100120000001311DCF252C10321DCF252C10331D81
:10013000CF25201020100A00CC224E224F10D322AF
:10014000CE294F29A020541020050001412AA024C7
:10015000C42241263A10A012751020100A00311D49
:10016000CF252C10321DCF252C10331DCF252C1060
:100170002005201ABA274B00412A2021C124D8206B
:100180003A10A012751020100A00412AA0204C2A13
:10019000411D2010A53A201020050001CC224E223E
:1001A0004F10D322CE294F292028481020050001C6
:1001B00050242021C124D8273A10A01275102010F5
:1001C0000A005024A024C42241263A10A01275101F
:1001D00020100A00311DCF252C10321DCF252C10E8
:1001E000331DCF252C1020100A10201ABA274B16C9
:1001F000A01ABA274B1000015024A0204C2A4F1DF2
:100200002010A53A20102005000143264F294F1049
:100210004922C5204C1D2010A53A201020050001C0
:10022000311DCF252C10321DCF252C10331DCF258D
:100230002C1020100A1ABA274B16A01ABA274B16F0
:10024000201BBA274B1000014128CC24D12A45108D
:10025000CD20C929A021CC27D2273A10A012751091
:1002600020100A0037308400831300080319462940
:100270000130F800F701F70B3B29F80B3A294A3017
:10028000F700F70B41294429800B382908003E0E5E
:10029000F039F7000F3008057704880000000814D3
:1002A0005129081008000808F700080E0F39F80057
:1002B00008008316081088100811831288100F3068
:1002C00083160805F038880083120815000008140A
:1002D000000053217808BE00081000000814000038
:1002E00053217808BD0008100F30831608058800D8
:1002F00083123E0EF700F030F70577083D04F80052
:100300007808BD00BD1B5F293B1C88103B18881472
:1003100000000811000008103C0EBD000F30BD05A4
:100320003D08BE0047213C080F39BD00BE004721F3
:1003300008000F308316080588000810881008117F
:1003400083128810081108100F30B70032210130D5
:10035000B1003108033C031CB5290330BE0047211E
:100360000530B7003221B10AA9290230BE00472169
:100370000530B7003221B1013108033C031CC92903
:1003800031083120B200BB013208BC005921B10A4A
:10039000BC298A110A12A92C301130088316870053
:1003A00083120711B011300883168700831287115A
:1003B000301230088316870083120712B0123008FB
:1003C0008316870083128712301330088316870044
:1003D00083120713B0133008831687008312871324
:1003E000B010300883168700831287103010300851
:1003F00083168700831207108316881183128811D1
:100400008A110A12B12C380B062A092A4030B90089
:100410000A2AB90101303702B90739088038BA0011
:10042000BB013A08BC00592108003608073A0319F5
:10043000232A0B3A0319282A063A0319302A023ACA
:100440000319362A3B2A0130B700B8000322402A9C
:10045000BB010130BC0059210230B7003221402AD3
:100460000130B7000230B8000322402ABB0110302F
:10047000BC005921402A0130BB003608BC0059217C
:1004800008000C30AB002B08B600152208000B0842
:10049000B1008B13831603178C170C140000000097
:1004A00083120C087F3903198E2A0313B200031735
:1004B0000D080313B30003170F080313B400320829
:1004C000B6001522330803178D00031334080317F1
:1004D0008F0083168C170C140000000083120C0D83
:1004E0000E0D7F3903198E2A0313B20003170D086E
:1004F0000313B30003170F080313B4003208B60048
:100500001522330803178D000313340803178F00D7
:100510008D0A03198F0A03134A2A03170313B11B09
:100520008B1708000B08B2008B13831603178C1768
:100530000C14000000000318C42A83120C087F3931
:100540000313B30003170D080313B40003170F08B8
:100550000313B5003308B6001522340803178D00C5
:100560000313350803178F0083168C170C14000033
:10057000000083120313B10BBE2AC12A831603178E
:10058000C42AE32A8316031783120C0D0E0D7F393C
:100590000313B30003170D080313B40003170F0868
:1005A0000313B5003308B6001522340803178D0075
:1005B0000313350803178F008D0A03198F0A0310E0
:1005C0000313B10B952AB21B8B1708003408F801EE
:1005D00033020318EE2A3308F700FA2AF70108302D
:1005E000B500B30DF70D340877020318F700F80DC6
:1005F000B50BF12A080078083108B3006430B40064
:10060000E6227708B10078083030031D0E2BB21CAB
:10061000152BB219152B321A2030112BB2113212B0
:100620003214F8077808B60015223108B3000A30F2
:10063000B400E6227708B10078083030031D262B7D
:10064000B2192A2B321C2A2B321A2030F8077808CC
:10065000B60015223030B1073108B6001522080067
:100660008E30F7003408F8003308F900FA01F80872
:10067000031D442B7908F800F9010830F702F80847
:10068000031D442BF7014C2B0310F81B4B2BF90DCA
:10069000F80DF703442BF813080033080319BD2B9A
:1006A000BB0037080319BD2BBB0703185E2B7F3037
:1006B000BB02031CBD2B0319BD2B622B8130BB0772
:1006C0000318BD2B3B08F700F801F901FA013408C3
:1006D000BF00BF173508BE003608BD001830BB008C
:1006E000BC013D1C8B2B3A08FA07031C7D2BF90A31
:1006F000031D7D2BF80A0319BC173908F907031CE1
:10070000842BF80A0319BC173808B500B51735084B
:10071000F8070318BC17BC0DF80CF90CFA0CBF0C49
:10072000BE0CBD0C0310BB0B702B0130F707031878
:10073000BD2BF81BA22BBF0DFA0DF90DF80DF70319
:100740000319BD2BBF1FB32BFA0A031DB32BF90AE4
:10075000031DB32BF80A031DB32BF80CF90CFA0C8C
:10076000F70A0319BD2B3408BC003808BC06BC1FAF
:10077000BB2BF817C12BF813C12BF701F801F901B6
:10078000FA0108008E30F7003308F7023408F90048
:100790003508F800F917F7080319D92B0310F908E1
:1007A000031DD52BF8080319D92BF90CF80CF70BFE
:1007B000CE2BB41FE02BF809F909F80A0319F90A3E
:1007C000080064000030F8001F08C73978049F0053
:1007D0000130B70032211F151F19EC2B1E08B10084
:1007E000B4013108B30030237A08B6007908B500A7
:1007F0007808B4007708B300BA01B9012030B80016
:100800007A30B7004D237A08B6007908B500780829
:10081000B4007708B300C2237808B2003208F800A9
:10082000080064000830F8001F08C73978049F00EA
:100830000130B70032211F151F191C2C1E08B100F2
:10084000B4013108B30030237A08B6007908B50046
:100850007808B4007708B300BA01B9012030B800B5
:100860007A30B7004D237A08B6007908B5007808C9
:10087000B4007708B300C2237808B2003208F80049
:10088000080064001030F8001F08C73978049F0082
:100890000130B70032211F151F194C2C1E08B10062
:1008A000B4013108B30030237A08B6007908B500E6
:1008B0007808B4007708B300BA01B9012030B80055
:1008C0007A30B7004D237A08B6007908B500780869
:1008D000B4007708B300C2237808B2003208F800E9
:1008E000080003081F398300A901AA01AC01AD016A
:1008F000AE01AF01FF30B00083161F149F141F1507
:100900009F1107309C0083138312A701A80183164F
:100910001F109F101F159F111F1383121F179F1762
:1009200083169F1383121F1483168113C030831202
:100930008B040B1683160C1483120C10B530900028
:100940008E010B308F00DC308E0083160113831272
:1009500099292A08F93E0318DF2F073EE12FA90144
:10096000CC2941220130AA00DF2F831606158312FD
:10097000061DD72C2A0BD72C4C3003178D000030C6
:100980008F00031347229630B70032213011300810
:1009900083168700831207159630B7003221301175
:1009A000300883168700831207114122B52C41229B
:1009B000301130088316870083120715543003174F
:1009C0008D0000308F00031347220230B100FA304F
:1009D000B7003221B10BE72C0230AA00DF2F4122F1
:1009E000AF0803193E2DAF01A9012908063C031CDD
:1009F000212D5A3003178D0000308F0003100C306A
:100A00000313B10092222908B1001B30B200FB226F
:100A1000613003178D0000308F0003100430031382
:100A2000B1009222B0113008831687008312871517
:100A30000230B100E130B7003221B10B1A2D412252
:100A4000F52C4122B01130088316870083128711DC
:100A5000301230088316870083120716643003179C
:100A60008D0000308F00031347220230B100FA30AE
:100A7000B7003221B10B372DAA01DF2FA9012908B8
:100A8000023C031C6B2D733003178D0000308F0068
:100A900003100B300313B10092222908B1001B3060
:100AA000B200FB22793003178D0000308F00031451
:100AB00004300313B1009222B0113008831687006E
:100AC000831287150230B100E130B7003221B10B3B
:100AD000642D41223F2D4122B0113008831687003A
:100AE000831287113012300883168700831207168D
:100AF0007C3003178D0000308F0003134722023033
:100B0000B100FA30B7003221B10B812D0330AA00B9
:100B1000DF2F4122A9012908023C031CB72D853093
:100B200003178D0000308F00031010300313B10045
:100B300092222908B1001B30B200FB228E3003172D
:100B40008D0000308F00031004300313B100922297
:100B5000B012300883168700831287160230B10066
:100B6000E130B7003221B10BB02D41228B2D412253
:100B7000B0123008831687008312871230133008B2
:100B80008316870083120717913003178D000030FA
:100B90008F00031347220230B100FA30B700322130
:100BA000B10BCD2D0430AA00DF2F41229C3003175A
:100BB0008D0000308F00031347220230B100FA305D
:100BC000B7003221B10BDF2DE1237808AC002C08EF
:100BD000073C031DEF2D2C08083C0319922E2C080E
:100BE000073C0319F72D2C08083C031D312E412228
:100BF000A63003178D0000308F0003100B30031355
:100C0000B10092222C08B1001B30B200FB22AC30A4
:100C100003178D0000308F00031404300313B1005C
:100C20009222B01330088316870083128717023090
:100C3000B100FA30B7003221B10B192E4122AF308A
:100C400003178D0000308F00031347220230B100DC
:100C5000FA30B7003221B10B282E0530AA00922EAF
:100C60008E2E2C08063C031C622E4122BC3003173A
:100C70008D0000308F0003100B300313B10092225F
:100C80002C08B1001B30B200FB22C23003178D00CC
:100C900000308F00031404300313B1009222B0130C
:100CA000300883168700831287176430B70032211B
:100CB000B013300883168700831287136430B7009F
:100CC00032218E2E4122C53003178D0000308F0057
:100CD00003100A300313B10092222C08B1001B301C
:100CE000B200FB22CB3003178D0000308F000310C1
:100CF00004300313B1009222B0133008831687002A
:100D0000831287176430B7003221B013300883167E
:100D10008700831287136430B7003221E1237808FB
:100D2000AC00E72D4122DF2FCE3003178D000030BD
:100D30008F00031347220230B100FA30B70032218E
:100D4000B10B9D2E11247808AD0041222D08053CE1
:100D5000031DB22E2D08063C031DB22E2D08073CA4
:100D600003195D2F2D08043C031CE52E4122D830C9
:100D700003178D0000308F0003100B300313B100F8
:100D800092222D08B1001B30B200FB22DE30031787
:100D90008D0000308F00031404300313B100922241
:100DA000B010300883168700831287146430B700B0
:100DB0003221B01030088316870083128710643008
:100DC000B70032210630AA00592F2D08053C03191F
:100DD000F12E2D08063C0319F12E2D08073C031DAA
:100DE0002B2F4122E13003178D0000308F000310BC
:100DF0000B300313B10092222D08B1001B30B2005A
:100E0000FB22E73003178D0000308F0003140430FD
:100E10000313B1009222B0103008831687008312AA
:100E200087140230B100FA30B7003221B10B132F12
:100E30004122EA3003178D0000308F000313472250
:100E40000230B100FA30B7003221B10B222F063048
:100E5000AA005D2F592F4122FC3003178D0000306E
:100E60008F0003100A300313B10092222D08B10045
:100E70001B30B200FB22023003178D0001308F00BF
:100E8000031004300313B1009222B010300883160F
:100E90008700831287146430B7003221B010300805
:100EA00083168700831287106430B7003221063022
:100EB000AA0011247808AD00A62E4122DF2F41247C
:100EC0007808AE0041222E08083C031D6B2F2E0827
:100ED000093C0319DF2F2E08083C0319732F2E0835
:100EE000093C031DB42F053003178D0001308F001E
:100EF00003100E300313B10092222E08B1001B30F4
:100F0000B200FB220D3003178D0001308F0003105B
:100F100004300313B10092220230B100FA30B7005E
:100F20003221B10B8E2F4122103003178D0001307A
:100F30008F00031347220230B100FA30B70032218C
:100F4000B10B9D2F8316881183128815301030083D
:100F50008316870083120710C830B7003221AF0A0A
:100F60000230AA00DF2FDB2F243003178D00013061
:100F70008F00031015300313B10092222E08B10028
:100F80001B30B200FB222F3003178D0001308F0081
:100F9000031404300313B10092220230B100FA307E
:100FA000B7003221B10BCF2F412230103008831609
:100FB00087008312071441247808AE00632FA92C00
:100FC00063000A148A140A158207AF2CB52CEF2C83
:080FD000892DD52D942E5F2F11
:02400E003D3F34
:00000001FF
;PIC16F877A
;CRC=7D88  CREATED="13-jun-17 19:28"
